:020000040800F2
:10000000008001205D1700085D0800085F080008F7
:100010006108000863080008650800080000000087
:100020000000000000000000000000006708000859
:1000300069080008000000006B0800086D0800084F
:10004000AD170008AD170008AD170008AD17000880
:10005000AD170008AD170008AD170008AD17000870
:10006000AD170008AD170008AD170008AD17000860
:10007000AD170008AD170008AD170008AD17000850
:10008000AD170008AD170008AD170008000000000C
:10009000000000000000000000000000AD17000894
:1000A000AD170008AD170008AD170008AD17000820
:1000B000AD170008AD170008AD170008AD17000810
:1000C000AD170008AD170008AD170008AD17000800
:1000D000AD170008AD170008AD17000800000000BC
:1000E000AD170008AD170008AD17000800000000AC
:1000F000000000000000000000000000AD17000834
:1001000000000000AD170008AD170008AD1700088B
:1001100000000000000000000000000000000000DF
:10012000AD170008AD170008AD170008AD1700089F
:10013000AD170008000000000000000000000000F3
:10014000000000000000000000000000AD170008E3
:10015000AD170008AD170008AD170008AD1700086F
:10016000AD170008AD1700080000000000000000F7
:10017000000000000000000000000000000000007F
:1001800000000000AD1700080000000000000000A3
:04019000AD1700089F
:1001940010B5054C237833B9044B13B10448AFF3BD
:1001A40000800123237010BD3C04002000000000E7
:1001B4007C19000808B5034B1BB103490348AFF38E
:1001C400008008BD00000000400400207C190008E5
:1001D40053B94AB9002908BF00281CBF4FF0FF31AA
:1001E4004FF0FF3000F074B9ADF1080C6DE904CEA6
:1001F40000F006F8DDF804E0DDE9022304B07047FE
:100204002DE9F047089E0D4604468846002B4DD143
:100214008A42944668D9B2FA82F252B101FA02F3E0
:10022400C2F1200120FA01F10CFA02FC41EA0308B0
:1002340094404FEA1C45210CB8FBF5FE1FFA8CF7DD
:1002440005FB1E8341EA03430EFB07F199420BD9D8
:100254001CEB03030EF1FF3080F01E81994240F243
:100264001B81AEF1020E63445B1AA4B2B3FBF5F03A
:1002740005FB103344EA034400FB07F7A7420AD9FD
:100284001CEB040400F1FF3380F00881A74240F224
:10029400058164440238E41B40EA0E4000211EB18B
:1002A400D4400023C6E90043BDE8F0878B4208D957
:1002B400002E00F0EE800021C6E900050846BDE8E6
:1002C400F087B3FA83F100294AD1AB4202D38242C8
:1002D40000F2F980841A65EB030301209846002E8E
:1002E400E2D0C6E90048DFE702B9FFDEB2FA82F2E3
:1002F400002A40F09180A1EB0C054FEA1C471FFA3D
:100304008CFE0121B5FBF7F307FB1350250C45EADE
:1003140000450EFB03F0A84208D91CEB050503F1C8
:10032400FF3802D2A84200F2CB8043462D1AA4B271
:10033400B5FBF7F007FB105544EA05440EFB00FE3D
:10034400A64508D91CEB040400F1FF3502D2A645EA
:1003540000F2BB802846A4EB0E0440EA03409EE76B
:10036400C1F120078B4022FA07FC4CEA030C20FA67
:1003740007F405FA01F31C43FD404FEA1C4900FA57
:1003840001F3B5FBF9F8200C1FFA8CFE09FB185594
:1003940040EA054508FB0EF0A84202FA01F20BD927
:1003A4001CEB050508F1FF3A80F08880A84240F272
:1003B4008580A8F1020865442D1AA4B2B5FBF9F0B2
:1003C40009FB105544EA054500FB0EFEAE4508D96D
:1003D4001CEB050500F1FF346CD2AE456AD9023836
:1003E400654440EA0840A0FB0294A5EB0E05A54233
:1003F400C846A64656D353D05EB1B3EB080265EBAC
:100404000E0505FA07F722FA01F3CD401F43C6E9AA
:1004140000750021BDE8F087C2F1200320FA03F142
:100424000CFA02FC25FA03F395400D434FEA1C47EE
:100434001FFA8CFEB3FBF7F107FB11302B0C43EAD8
:10044400004301FB0EF0984204FA02F408D91CEBB5
:10045400030301F1FF382FD298422DD902396344A6
:100464001B1AADB2B3FBF7F007FB103345EA0345A3
:1004740000FB0EF3AB4208D91CEB050500F1FF3875
:1004840016D2AB4214D902386544ED1A40EA014150
:1004940038E73146304607E78646E5E61846FAE689
:1004A4004B45A9D2B9EB020864EB0C0E0138A3E763
:1004B4004046EAE7204694E74146D1E7D0467BE749
:1004C400023B654432E7084609E76444023842E7E0
:1004D400704700BF30B58BB0002405940694079490
:1004E400089409940194264B1A6B42F004021A638F
:1004F4001A6B02F004020192019A02941A6B42F000
:1005040080021A631A6B02F080020292029A039428
:100514001A6B42F001021A631A6B02F00102039291
:10052400039A04941A6B42F002021A631B6B03F0E1
:1005340002030493049B134D22462021284600F015
:10054400D6FC4FF4005305934FF404130693079419
:1005540005A90D4800F0E4FB20230593012306932D
:100564000794089405A9284600F0DAFB4023059374
:100574000694079405A9284600F0D2FB0BB030BDC1
:1005840000380240000002400008024008B572B67C
:100594004021034800F0A4FC0028F9D008BD00BFA6
:1005A4000000024008B50A480A4B03604FF4E133E7
:1005B400436000238360C36003610C224261836152
:1005C400C36101F08FF800B908BDFFF7DFFFFBE757
:1005D400A00400200044004000B585B0002300932F
:1005E4000193029303931548154A02604FF4803235
:1005F400426083600361037680F82030C362114A4D
:100604008262C3600122C26180F83030426100F02E
:1006140031FA68B904230093012301930023029360
:100624006946064800F052FA28B905B05DF804FBA3
:10063400FFF7ACFFEEE7FFF7A9FFF6E75804002049
:10064400002001400100000F00B595B030220021C8
:1006540008A801F0CFF800230393049305930693AD
:1006640007930193204A116C41F080511164126C7C
:1006740002F080520192019A02931C490A6822F402
:10068400404242F400420A600A6802F44042029284
:10069400029A0221089101220B9210220C920E91CF
:1006A4000F9310924FF4A87311930423129307230A
:1006B400139308A800F022FC80B90F2303930221AE
:1006C4000491002305934FF480520692079303A8E4
:1006D40000F07AFE28B915B05DF804FBFFF756FF69
:1006E400EBE7FFF753FFF6E70038024000700040E5
:1006F40010B500F0E5F8FFF7A7FFFFF7EBFEFFF7F3
:1007040051FFFFF769FF12E00D4C01222021204622
:1007140000F0EDFB4FF4FA7000F0FEF80022202107
:10072400204600F0E4FB4FF4FA7000F0F5F84021A5
:10073400034800F0D5FB0028E6D0002010BD00BF20
:100744000000024000B583B0002100910C4B5A6CAC
:1007540042F480425A645A6C02F480420092009A35
:1007640001911A6C42F080521A641B6C03F080539E
:100774000193019B072000F075FA03B05DF804FBB8
:100784000038024000B589B0002303930493059315
:1007940006930793026803F1804303F590339A426A
:1007A40002D009B05DF804FB0021019103F58C33FC
:1007B4005A6C42F480725A645A6C02F48072019248
:1007C400019A02911A6B42F001021A631B6B03F047
:1007D40001030293029B102303930323049303A9AD
:1007E400014800F09DFADCE70000024000B589B042
:1007F4000023039304930593069307930268144B11
:100804009A4202D009B05DF804FB0021019103F57E
:10081400FA331A6C42F400321A641A6C02F400328D
:100824000192019A02911A6B42F001021A631B6B46
:1008340003F001030293029B0C230393022304930A
:100844000723079303A9034800F06AFADAE700BF15
:100854000044004000000240FEE7FEE7FEE7FEE73A
:10086400FEE770477047704708B500F043F808BDCD
:100874007047000010B504460E4B18784FF47A7395
:10088400B3FBF0F30C4A1068B0FBF3F000F034FA59
:1008940068B90F2C01D901200AE0002221464FF04B
:1008A400FF3000F0F1F9054B1C60002000E001204E
:1008B40010BD00BF0400002000000020080000203C
:1008C40008B50B4B1A6842F400721A601A6842F4B5
:1008D40080621A601A6842F480721A60032000F081
:1008E400C1F90020FFF7C6FFFFF72CFF002008BD69
:1008F400003C0240034A1168034B1B780B4413600D
:10090400704700BF1405002004000020014B186844
:10091400704700BF1405002038B50446FFF7F6FF02
:100924000546B4F1FF3F02D0044B1B781C44FFF78B
:10093400EDFF401BA042FAD338BD00BF04000020E5
:100944004A4B5A6822F440325A605A6841680A4352
:100954005A600268536823F48073536002685368D2
:10096400016943EA012353600268536823F040732A
:1009740053600268536881680B435360026893684C
:1009840023F40063936002689368C1680B43936027
:10099400826A374B9A4257D00268936823F0706397
:1009A400936002689368816A0B439360026893685A
:1009B40023F04053936002689368C16A0B439360C9
:1009C4000268936823F00203936002689368017ECF
:1009D40043EA4103936090F82030002B3FD0026833
:1009E400536843F4006353600268536823F460431C
:1009F400536001684B68426A013A43EA42334B60F0
:100A04000268D36A23F47003D3620168CB6AC269B3
:100A1400013A43EA0253CB620268936823F40073F9
:100A240093600268936890F8301043EA412393601E
:100A34000268936823F48063936002689368416951
:100A440043EA8123936070470268936823F07063DC
:100A540093600268936823F040539360B0E70268A0
:100A6400536823F400635360CAE700BF00230140C6
:100A74000100000F38B310B50446036C43B1236C76
:100A840013F0100F0BD00120002384F83C3010BD6C
:100A9400FFF778FE0023636484F83C30EFE7236CAF
:100AA40023F4885323F0020343F002032364204613
:100AB400FFF746FF00206064236C23F0030343F038
:100AC40001032364E0E701207047000030B482B0E2
:100AD4000023019390F83C30012B00F0BB800123EC
:100AE40080F83C300B68092B41D90468E2689BB25A
:100AF40003EB43031E3B4FF0070C0CFA03F322EA0B
:100B04000303E3600468E2680B8803EB43031E3BC2
:100B14008D6805FA03F31343E3604B68062B3DD855
:100B24000468626B03EB8303053B4FF01F0C0CFA64
:100B340003F322EA030363630468626B4B6803EB09
:100B44008303053BB1F800C00CFA03F3134363635A
:100B54000268414B9A4251D002683F4B9A4256D0A8
:100B6400002380F83C30184602B030BC704704685B
:100B740022699BB203EB43034FF0070C0CFA03F317
:100B840022EA03032361046822690B8803EB43030D
:100B94008D6805FA03F313432361BEE70C2B16D8C3
:100BA40005682A6B03EB8303233B1F2404FA03F336
:100BB40022EA03032B6305682A6B4B6803EB830368
:100BC400233B0C8804FA03F313432B63C0E7056843
:100BD400EA6A03EB8303413B1F2404FA03F322EA8A
:100BE4000303EB620568EA6A4B6803EB8303413B4A
:100BF4000C8804FA03F31343EB62A9E70B68122B86
:100C0400AAD1164A536843F480035360A4E70B68DF
:100C1400103B012BA4D8114A536843F400035360DA
:100C24000B68102B9CD10E4B1B6802F1467202F527
:100C34002E3202F28332A2FB03239B0C03EB8303C9
:100C44005B00019302E0019B013B0193019B002B9C
:100C5400F9D185E7022087E7002001400023014005
:100C640000000020074AD36823F4E0631B041B0C34
:100C7400000200F4E060034343F0BF6343F4003335
:100C8400D360704700ED00E000B5194BDB68C3F397
:100C94000223C3F1070CBCF1040F28BF4FF0040C6E
:100CA40003F1040EBEF1060F18D9033B4FF0FF3ECB
:100CB4000EFA0CFC21EA0C0199400EFA03F322EA25
:100CC4000303194300280BDB0901C9B200F160409A
:100CD40000F5614080F800135DF804FB0023E5E7AC
:100CE40000F00F000901C9B2024B1954F4E700BF28
:100CF40000ED00E014ED00E00138B0F1807F0BD28C
:100D04004FF0E0235861054AF02182F823100020B7
:100D1400986107221A6170470120704700ED00E0D6
:100D240000230F2B00F2D28070B582B060E085689A
:100D34005E000324B44025EA0405CC68B4402C4387
:100D44008460456825EA02054C68C4F300129A40A1
:100D54002A4342605AE0DC08083450F8246003F067
:100D6400070295000F22AA4026EA020E0A69AA4049
:100D740042EA0E0240F824205CE0042200E0002253
:100D840002FA0EF22A430234514D45F82420514A06
:100D940014686FEA0C0224EA0C054E6816F4803FCE
:100DA40001D04CEA04054B4C2560646802EA040552
:100DB4004E6816F4003F01D04CEA0405454C6560CA
:100DC400A46802EA04054E6816F4801F01D04CEAB8
:100DD4000405404CA560E46822404D6815F4001FEA
:100DE40001D04CEA04023B4CE26001330F2B6BD878
:100DF40001229A400C6804EA020C32EA0404F4D199
:100E04004C6804F00304013C012C90D94A6802F0B8
:100E14000302032A09D0C4685D000322AA4024EA1D
:100E240002048A68AA402243C2604A6802F00302AC
:100E3400022A90D004684FEA430E032202FA0EF20B
:100E440024EA02044A6802F0030202FA0EF2224380
:100E540002604A6812F4403FC7D0002201921E4A41
:100E6400546C44F480445464526C02F48042019201
:100E7400019A9C08A51C164A52F8255003F0030257
:100E84004FEA820E0F2202FA0EF225EA0205134AF5
:100E940090423FF474AF02F5806290420ED002F5A6
:100EA400806290420CD002F5806290420AD002F532
:100EB400806290423FF461AF072261E701225FE75D
:100EC40002225DE703225BE702B070BD704700BFFA
:100ED40000380140003C014000380240000002405C
:100EE4000369194201D001207047002070470AB1FC
:100EF400816170470904816170470000002800F097
:100F0400E08170B582B00446036813F0010F3BD052
:100F14009F4B9B6803F00C03042B2CD09C4B9B68C9
:100F240003F00C03082B21D06368B3F5803F4FD046
:100F3400B3F5A02F52D0964B1A6822F480321A606F
:100F44001A6822F480221A606368002B50D0FFF7DD
:100F5400DDFC05468E4B1B6813F4003F14D1FFF7EC
:100F6400D5FC401B6428F5D90320B1E1884B5B68AC
:100F740013F4800FD8D0864B1B6813F4003F03D0C2
:100F84006368002B00F09F81236813F0020F54D094
:100F94007F4B9B6813F00C0F3ED07D4B9B6803F096
:100FA4000C03082B33D0E368002B68D0794B012263
:100FB4001A60FFF7ABFC0546754B1B6813F0020F74
:100FC40054D1FFF7A3FC401B0228F5D903207FE18D
:100FD4006F4A136843F480331360B5E76C4B1A68A7
:100FE40042F480221A601A6842F480321A60ABE735
:100FF400FFF78CFC0546664B1B6813F4003FC3D017
:10100400FFF784FC401B6428F5D9032060E1604BA2
:101014005B6813F4800FC6D15D4B1B6813F0020F9D
:1010240003D0E368012B40F05081594A136823F040
:10103400F803216943EAC1031360236813F0080F1E
:1010440042D063696BB3534B0122C3F8802EFFF780
:101054005DFC05464E4B5B6F13F0020F34D1FFF776
:1010640055FC401B0228F5D9032031E1484A136896
:1010740023F0F803216943EAC1031360DDE7454B1C
:1010840000221A60FFF742FC0546414B1B6813F02F
:10109400020FD2D0FFF73AFC401B0228F5D90320F7
:1010A40016E13C4B0022C3F8802EFFF72FFC0546C7
:1010B400374B5B6F13F0020F06D0FFF727FC401B82
:1010C4000228F5D9032003E1236813F0040F77D035
:1010D4002F4B1B6C13F0805F33D1002301932C4BF7
:1010E4001A6C42F080521A641B6C03F08053019313
:1010F400019B0125284B1B6813F4807F23D0A36830
:10110400012B34D0052B38D0214B1A6F22F0010269
:101114001A671A6F22F004021A67A368002B3DD0E5
:10112400FFF7F4FB06461A4B1B6F13F0020F46D170
:10113400FFF7ECFB801B41F288339842F3D903207C
:10114400C6E00025D6E7144A136843F4807313609D
:10115400FFF7DCFB0646104B1B6813F4807FCED1EF
:10116400FFF7D4FB801B0228F5D90320B0E0084A1E
:10117400136F43F001031367CFE7054B1A6F42F077
:1011840004021A671A6F42F001021A67C5E700BF2A
:10119400003802400000474200700040FFF7B6FBF1
:1011A4000646524B1B6F13F0020F08D0FFF7AEFB3D
:1011B400801B41F288339842F3D9032088E0EDB9CB
:1011C400A369002B00F08380484A926802F00C0265
:1011D400082A51D0022B17D0454B00221A66FFF77C
:1011E40095FB0446414B1B6813F0007F42D0FFF788
:1011F4008DFB001B0228F5D9032069E03B4A136CE0
:1012040023F080531364DBE7394B00221A66FFF79F
:101214007DFB0546354B1B6813F0007F06D0FFF7B6
:1012240075FB401B0228F5D9032051E0E369226ACB
:101234001343626A43EA8213A26A5208013A43EAF8
:101244000243E26A43EA0263284A5360284B0122BC
:101254001A66FFF75BFB0446244B1B6813F0007F00
:1012640006D1FFF753FB001B0228F5D903202FE01A
:1012740000202DE000202BE0012B2BD01B4B5B68C2
:1012840003F48001E269914226D103F03F02216A0E
:101294008A4223D1616A47F6C0721A40B2EB811FB9
:1012A4001ED103F44031A26A5208013AB1EB024F55
:1012B40018D103F07063E26AB3EB026F14D100201B
:1012C40006E001207047012002E0012000E0002038
:1012D40002B070BD0120FBE70120F9E70120F7E728
:1012E4000120F5E70120F3E70120F1E7003802408F
:1012F4000000474208B5314B9B6803F00C03042BF4
:1013040057D0082B57D12D4B5A6802F03F025B6827
:1013140013F4800F2AD0294B5968C1F3881C4FEA73
:101324004C11B1EB0C006EEB0E0E4FEA8E1343EA38
:1013340090638101091A63EB0E03DB0043EA5173E6
:10134400C90011EB0C0C43F10003590200234FEACE
:101354004C2041EADC51FEF73BFF184B5B68C3F3BA
:10136400014301335B00B0FBF3F025E0134B5968F4
:10137400C1F3881C4FEA4C11B1EB0C006EEB0E0E5E
:101384004FEA8E1343EA90638101091A63EB0E035B
:10139400DB0043EA5173C90011EB0C0C43F1000369
:1013A400990200234FEA8C2041EA9C51FEF710FF7A
:1013B400D3E7034800E0034808BD00BF00380240FB
:1013C40000127A000024F400002800F09B8070B51D
:1013D4000D4604464F4B1B6803F007038B4208D2AB
:1013E400CBB24C4A1370136803F007038B4240F0EE
:1013F4008B80236813F0020F17D013F0040F04D06E
:10140400454A936843F4E0539360236813F0080F4C
:1014140004D0414A936843F4604393603E4A93681E
:1014240023F0F003A1680B439360236813F0010FCA
:1014340032D06368012B21D09A1E012A25D9364A5D
:10144400126812F0020F61D033498A6822F0030255
:1014540013438B60FFF75AFA06462F4B9B6803F041
:101464000C036268B3EB820F16D0FFF74FFA801BB0
:1014740041F288339842F0D9032042E0264A1268A8
:1014840012F4003FE0D101203BE0234A126812F03D
:10149400007FD9D1012034E01E4B1B6803F0070301
:1014A400AB4207D9EAB21B4B1A701B6803F007035F
:1014B400AB422DD1236813F0040F06D0164A93686B
:1014C40023F4E053E1680B439360236813F0080F9F
:1014D40007D0114A936823F46043216943EAC103A6
:1014E4009360FFF707FF0C4B9B68C3F303130B4A8E
:1014F400D35CD8400A4B18600A4B1868FFF7BAF956
:10150400002070BD012070470120FAE70120F8E7B0
:101514000120F6E7003C024000380240941900081C
:101524000000002008000020014B1868704700BF2D
:101534000000002008B5FFF7F7FF044B9B68C3F3D6
:101544008223034AD35CD84008BD00BF0038024060
:10155400A419000808B5FFF7E7FF044B9B68C3F321
:101564004233034AD35CD84008BD00BF0038024070
:10157400A419000870477047704770477047704758
:10158400704770477047000038B504460268136915
:1015940023F44053C1680B43136183680269134306
:1015A40042691343C2691A430168CB6823F41643A2
:1015B40023F00C031343CB600268536923F4407394
:1015C40081690B4353610368314A934206D002F5A3
:1015D4008062934202D0FFF7ADFF01E0FFF7BAFF4C
:1015E400E369B3F5004F29D00021031849411B18C2
:1015F40041F10001C90041EA5371DB001818636826
:101604004FEA83024FEA937341F10001FEF7E0FDD4
:10161400204DA5FB00325109642303FB11031B0178
:101624003233A5FB03235B0903F0F00202EB011242
:1016340003F00F03216813448B6038BD00230218A4
:1016440043EB0301121841F10001C90041EA527150
:10165400D200101841F10001626892185B41FEF754
:10166400B7FD0C4DA5FB00325109642303FB1103A4
:10167400DB003233A5FB03235B095A0002F4F87242
:1016840002EB011203F00703216813448B60D4E7D3
:10169400001001401F85EB51094B4364094B8364DF
:1016A400094BC364094B0365094B4365094B8365C7
:1016B400094BC365094B0366094B8366704700BF3A
:1016C4007B150008791500087F1500087D150008B2
:1016D4008115000883150008851500088715000882
:1016E40089150008002833D010B5044690F83D3021
:1016F4000BB3242384F83D302268D36823F40053C9
:10170400D3602046FFF740FF2268136923F4904317
:1017140013612268536923F02A0353612268D36852
:1017240043F40053D36000202064202384F83D3028
:1017340084F83E3010BD80F83C30FFF7ADFFE36E17
:101744001BB1E36E20469847D3E7024BE366F8E704
:1017540001207047F1070008DFF834D00D480E4926
:101764000E4A002302E0D458C4500433C4188C42F7
:10177400F9D30B4A0B4C002301E013600432A2425C
:10178400FBD3FFF775F800F011F8FEF7B1FF7047CF
:1017940000800120000000203C040020C41900083F
:1017A4003C0400201C050020FEE7000070B50D4E2F
:1017B4000D4D761BB61006D0002455F8043B0134B9
:1017C4009847A642F9D1094E094D761B00F0D4F88A
:1017D400B61006D0002455F8043B01349847A642BD
:1017E400F9D170BDB8190008B8190008C01900086B
:1017F400B8190008830730B548D0541E002A3FD0DA
:10180400CAB2034601E0013C3AD303F8012B9D0719
:10181400F9D1032C2DD9CDB245EA05250F2C45EA83
:10182400054536D9A4F1100222F00F0C03F1200E65
:10183400E6444FEA121C03F1100242E9045542E95E
:10184400025510327245F8D10CF1010214F00C0F5C
:1018540003EB021204F00F0C13D0ACF1040323F0D9
:1018640003030433134442F8045B9342FBD10CF0AA
:1018740003042CB1CAB21C4403F8012B9C42FBD1D3
:1018840030BD64461346002CF4D1F9E703461446F0
:10189400BFE71A46A446E0E7024B13B1024800F042
:1018A40005B8704700000000BD1800080023014679
:1018B4001A46184600F01AB838B5084B084D5B1B99
:1018C4009C1007D0043B1D44013C55F8043998474B
:1018D400002CF9D1BDE8384000F054B8C419000810
:1018E400C0190008704700BF704700BF2DE9F047DA
:1018F400DFF87CA00646DAF8000098460F469146C9
:10190400FFF7F0FF1B4B1B68D3F8484124B365680D
:101914001F2D26DC5EB96B1C0235DAF8000063600B
:1019240044F82570FFF7E0FF0020BDE8F08704EBE2
:1019340085010123C1F88890D4F88821AB401A436B
:10194400022EC4F88821C1F80881E4D1D4F88C218E
:101954001343C4F88C31DEE703F5A674C3F8484199
:10196400D5E7DAF80000FFF7BFFF4FF0FF30DCE700
:1019740038040020AC190008F8B500BFF8BC08BC56
:101984009E467047F8B500BFF8BC08BC9E46704739
:10199400000000000000000001020304060708091B
:0C19A400000000000102030410000020FD
:0819B00054E8FF7F0100000074
:0819B8009D180008B9010008A8
:0419C0009501000885
:1019C4000024F400010000001000000000000000EA
:1019D40000000000FC02002064030020CC0300206F
:1019E40000000000000000000000000000000000F3
:1019F40000000000000000000000000000000000E3
:101A040000000000000000000000000000000000D2
:101A140000000000000000000000000000000000C2
:101A240000000000000000000000000000000000B2
:101A340000000000000000000000000000000000A2
:101A44000000000000000000000000000000000092
:101A54000000000000000000000000000000000082
:101A64000000000000000000000000000000000072
:101A74000000000000000000010000000000000061
:101A84000E33CDAB34126DE6ECDE05000B00000026
:101A94000000000000000000000000000000000042
:101AA4000000000000000000000000000000000032
:101AB4000000000000000000000000000000000022
:101AC4000000000000000000000000000000000012
:0C1DF400000000000000000018050020A6
:040000050800175D7B
:00000001FF
